:020000040000FA
:0400000007EF00F016
:0A00080015829AED03F0FBEF03F000
:100600000000066A04BE09EF03F007EF03F00FEFE6
:1006100003F0036C041ED8B0042A010E066E02BE5D
:1006200016EF03F014EF03F01CEF03F0016C021E51
:10063000D8B0022A010E061A000E086E000E076ED0
:1006400003500410D8B427EF03F029EF03F051EF63
:1006500003F0010E056E31EF03F0D8900336043637
:10066000052A04AE36EF03F038EF03F02DEF03F068
:10067000D890073608360350015C04500258D8A0C1
:1006800044EF03F046EF03F04BEF03F00350015E3D
:100690000450025A0780D89004320332052E38EFF6
:1006A00003F00650D8B457EF03F059EF03F05DEFB5
:1006B00003F0076C081ED8B0082A07C001F008C074
:1006C00002F01200CA84CA50FC0B0109CA6ED35052
:1006D0008F0B1009D36EBD50F00B0C09BD6E9494B6
:1006E0008B6A050ECA6E9B0ECB6EBE6A9280C1509D
:1006F000F00B0E09C16EC30EC216D3508F0B40090A
:10070000D36EC198C19AF80EC016C050C70B080925
:10071000C06EC280C09E9D8C9E9CF28CF28EC28266
:10072000000E106E1E0E0F6ECDEC03F096EF03F070
:1007300007EF00F00600F3CF0BF0F4CF0CF0C4CFBE
:100740000DF00E6A1E0E0D02F3CF09F0F4CF0AF081
:100750000E02F3500A2609C001F00AC002F0040E8E
:10076000046E000E036E01EC03F02D0E0124136ED7
:10077000000E0220146E13C001F014C002F0E4EC6D
:1007800003F09E9CFA0E00D0E82EFDD7C2820CC06A
:10079000F4FF0BC0F3FF159211000FC011F010C051
:1007A00012F0D89012321132D89012321132115008
:1007B000BE6E0FC011F0030E1116113ABD50111884
:1007C000CF0B1118BD6E120001C003F002C004F07F
:1007D000D89004320332D890043203320350BE6EF4
:1007E00001C003F0030E0316033ABD500318CF0BEC
:1007F0000318BD6E1200146A136A15901592000159
:0408000062EF03F0B0
:020000040020DA
:08000000FFFFFFFFFFFFFFFF00
:020000040030CA
:0E000000FF081B1EFF8181FF0FC00FE00F40A5
:00000001FF
