:020000040000FA
:0400000007EF00F016
:0A000800108248ED03F0A3EF03F0AF
:100600000000D3508F0B1009D36E92809282949485
:10061000949293808B6A95908C6AC150F00B0D096F
:10062000C16EC30EC216C198C19AC050F80B020920
:10063000C06EC050C70B0809C06EC280C08EC28297
:10064000CA84CA50FC0B0109CA6EBD50F00B0C09DC
:10065000BD6EBA50F00B0C09BA6E050ECA6E9B0E39
:10066000CB6EBE6ABB6A9D8C9E9CF28EF28CF28829
:10067000F292D08EF28EF28CC2B241EF03F043EFD1
:1006800003F03CEF03F0C2823CEF03F007EF00F011
:100690000600F2A24EEF03F050EF03F073EF03F009
:1006A0000D0E0F6E2B0EE82EFED70F2EFCD700D0AE
:1006B000000E0C6E340E0B6E8CEC03F0CB0E0F6E36
:1006C000EB0EE82EFED70F2EFCD70000000E0C6EAE
:1006D0002E0E0B6E8CEC03F0000E0C6E5A0E0B6E91
:1006E00075EC03F0F292109211000BC00DF00CC0EB
:1006F0000EF0D8900E320D32D8900E320D320D50D1
:10070000BB6E0BC00DF0030E0D160D3ABA500D184E
:10071000CF0B0D18BA6E12000BC00DF00CC00EF00E
:10072000D8900E320D32D8900E320D320D50BE6E72
:100730000BC00DF0030E0D160D3ABD500D18CF0B6A
:100740000D18BD6E120000EE01F00A0EEE6AE8060A
:0C075000FDE110901092000101EF03F099
:020000040020DA
:08000000FFFFFFFFFFFFFFFF00
:020000040030CA
:0E000000FF081B1EFF8181FF0FC00FE00F40A5
:00000001FF
